:100000000C9446000C9465000C9465000C946500FB
:100010000C9465000C9465000C9465000C946500CC
:100020000C9465000C9465000C9465000C946500BC
:100030000C9465000C94E9010C9465000C94650027
:100040000C9465000C9465000C9465000C9465009C
:100050000C9465000C9465000C9465000C9465008C
:100060000C9465000C9465000C9465000C9465007C
:100070000C9465000C9465000C9465000C9465006C
:100080000C9465000C9465000C94650011241FBE4F
:10009000CFEFD0E4DEBFCDBF11E0A0E0B1E0E0E102
:1000A000FBE000E00BBF02C007900D92A433B10744
:1000B000D9F721E0A4E3B1E001C01D92AB34B2074F
:1000C000E1F70E9439020C9486050C94000011B8E7
:1000D00087E880937A0080E480937C00089587709D
:1000E000806480937C00EAE7F0E080818064808314
:1000F00080917A0084FFFCCFEAE7F0E080818061A4
:1001000080832091780090917900892F90E0982F3A
:100110008827820F911D089588B98BB18F798BB98B
:100120008BB180688BB982E08A95F1F700C08BB102
:100130008F778BB98FE697E10197F1F700C0000048
:10014000089588B98BB18F7B8BB98BB1806A8BB9DD
:1001500082E08A95F1F700C08BB18F778BB98FEC75
:1001600097E00197F1F700C0000008958AB1806E12
:100170008AB98FEF87B98FE39CE90197F1F700C047
:10018000000088E30E948C008CE00E948C0086E0D6
:100190000E948C0081E00E948C0080E80E948C000C
:1001A00008950F931F93CF93DF93082F192FD0E05B
:1001B000C0E0F801EC0FFD1F8081882321F00E9430
:1001C000A1002196F6CFDF91CF911F910F91089555
:1001D000CF93DF93D42FC52F813049F0823069F05F
:1001E0008D2F9C2F0E94D100DF91CF9108956F70C9
:1001F000862F80680E948C00F3CF6F70862F806CF2
:100200000E948C00EDCF81E00E948C0080E80E946B
:100210008C000895CF93C82F8A3051F09091C00080
:1002200095FFFCCFC093C60090E080E0CF91089589
:100230008DE00E940A01F2CF80E00E946F0090934F
:1002400044018093430181E00E946F00282F392FE1
:1002500030934A01209349018091430190914401D8
:10026000853843E0940738F088E080933E0181E0D0
:100270008093420108958C32914038F484E0809359
:100280003E0181E08093410108952C3281E03807DE
:1002900038F482E080933E0181E08093400108952C
:1002A0002538334030F081E080933E0180933F0158
:1002B000089510923E011092420110924101109255
:1002C0003F0110924001089583E00E946F009093D7
:1002D00048018093470184E00E946F00282F392F46
:1002E0003093460120934501809147019091480148
:1002F000853843E0940738F080E88093390181E045
:1003000080933D0108958C32914038F480E48093CD
:10031000390181E080933C0108952C3281E0380757
:1003200038F480E28093390181E080933B010895A5
:100330002538334038F080E18093390181E08093A3
:100340003A0108951092390110923D0110923C013A
:1003500010923A0110923B01089560930E01709340
:100360000F018093100190931101609334017093F9
:100370003501809336019093370108958BE0809387
:1003800081008DE790E0909389008093880082E05F
:1003900080936F00109285001092840080910E016E
:1003A00090910F01A0911001B0911101809334013F
:1003B00090933501A0933601B09337018FB78068D1
:1003C0008FBF089510928100089581E080933801D5
:1003D00008951F920F920FB60F9211240BB60F9231
:1003E0002F933F934F935F936F937F938F939F933D
:1003F000AF93BF93EF93FF938091340190913501B8
:10040000A0913601B09137010197A109B1098093FC
:10041000340190933501A0933601B0933701892BB5
:100420008A2B8B2B99F0FF91EF91BF91AF919F9108
:100430008F917F916F915F914F913F912F910F908D
:100440000BBE0F900FBE0F901F9018950E94E501F4
:1004500080910E0190910F01A0911001B0911101B6
:100460008093340190933501A0933601B093370106
:10047000DACFCDB7DEB764970FB6F894DEBF0FBE04
:10048000CDBF8FEF84B915B861E070E080E090E0F7
:100490000E94AD010E94BE010E9467000E94B6004A
:1004A00080E00E946F009F938F9382E191E09F9381
:1004B0008F938E010F5F1F4F1F930F930E94B10206
:1004C000A80160E081E00E94E80081E00E946F00E6
:1004D0009F938F938AE191E09F938F931F930F9344
:1004E0000E94B102A80168E081E00E94E80083E078
:1004F0000E946F009F938F9382E291E09F938F936E
:100500001F930F930E94B102A80160E082E00E9455
:10051000E80084E00E946F009F938F938BE291E04C
:100520009F938F931F930F930E94B102A80168E0DD
:1005300082E00E94E8000E941C010E9464018091F8
:100540003E0190913901892B85B90FB6F894DEBF31
:100550000FBECDBF809138018111A2CF109238011A
:10056000F9CF0F931F93CF93DF93CDB7DEB72E97BD
:100570000FB6F894DEBF0FBECDBF0D891E8986E091
:100580008C831A8309838FEF9FE79E838D83AE014F
:10059000475E5F4F6F89788DCE0101960E94E10220
:1005A0002F813885020F131FF80110822E960FB687
:1005B000F894DEBF0FBECDBFDF91CF911F910F9199
:1005C00008952F923F924F925F926F927F928F92F7
:1005D0009F92AF92BF92CF92DF92EF92FF920F93D2
:1005E0001F93CF93DF93CDB7DEB72F970FB6F89455
:1005F000DEBF0FBECDBF7C013B018A01DC01179637
:100600001C921E92169713968C9181FFD8C19AE086
:10061000292EFE0131964F01D70113969C91F301CB
:1006200093FD859193FF81913F01882309F448C18F
:10063000853239F493FD859193FF81913F01853295
:1006400029F4B70190E00E94F804E6CFB12C412CC8
:10065000512CBFE1B51538F08B3209F188F48032A6
:1006600001F1833221F157FC3AC020ED280F2A30E6
:1006700040F556FE1FC0B29C200D1124B22E06C0BC
:100680008D3291F0803379F7689450F8F30193FD3F
:10069000859193FF81913F018111DBCF20C0689448
:1006A00051F8689452F8F2CF689453F8EFCF6894F9
:1006B00054F8ECCF429C200D1124422E689455F83A
:1006C000E5CF8E3229F456FCFBC0689456F8DECF95
:1006D0008C3619F4689457F8D9CF8836B9F2982F28
:1006E0009F7D95549330C0F08336A1F18337C1F1DB
:1006F000833509F05BC0D801CD90DD908D016B2D65
:1007000070E056FC02C06FEF7FEFC6010E94E2046A
:100710005C01689457F80AC00C5F1F4FEFE3E98350
:10072000AA24A394B12C6401E89457F853FC04C0A4
:100730004A141B0409F018F5342CA114B10431F546
:10074000332009F469CFB70180E290E00E94F804F9
:100750003A94F6CFD8018C9189830E5F1F4FE0CF7A
:10076000F801C190D1908F016B2D70E056FC02C052
:100770006FEF7FEFC6010E94ED045C01D5CFB7019A
:1007800080E290E00E94F8044A94D2CFF60157FC30
:10079000859157FE81916F01B70190E00E94F804A6
:1007A00031103A94B1E0AB1AB108C7CF843619F0D2
:1007B000893609F074C0F80157FE6AC061917191E1
:1007C000819191918F01E52DEF76DE2E97FF09C083
:1007D00090958095709561957F4F8F4F9F4F68944E
:1007E000D7F82AE030E0A4010E942805C82EC818D6
:1007F000AC2C5D2CD6FE0CC0E89450F8CB1440F421
:10080000D4FE05C0D2FC03C05D2D5E7E552EAB2C00
:1008100054FEADC0FE01EC0DF11D8081803309F066
:100820009FC0652D697E562E752D7870372E53FC2E
:10083000ADC050FEA7C0BC2CA41418F44C0CB42CB2
:10084000BA1854FEA9C0B70180E390E00E94F804F2
:1008500052FE09C088E790E051FE02C088E590E0B2
:10086000B7010E94F804CB1408F4A2C0CA94D12C9A
:100870008FEFC81AD80AC80CD91CD6018E916D0109
:10088000B70190E00E94F8048C149D04B1F758CF92
:1008900061917191072E000C880B990B93CFD52C89
:1008A000E894D4F82AE030E08537E1F1F52DF97FBE
:1008B000DF2E803751F100F5883551F18F3681F107
:1008C000F701868197812F960FB6F894DEBF0FBE91
:1008D000CDBFDF91CF911F910F91FF90EF90DF90EF
:1008E000CF90BF90AF909F908F907F906F905F90D0
:1008F0004F903F902F900895883711F7D4FE02C093
:100900006894D2F820E130E00DC06894D4F8F6CFB6
:1009100054FE03C02F2F2660D22E20E132E002C009
:1009200028E030E0F801D7FE15C041915191619166
:1009300071914C875D876E877F878F01A4016C85DD
:100940007D858E859F850E942805C82EC818E8944D
:10095000D7F84ECF81919191AC0170E060E0E9CF82
:1009600052FC02C0A39460CFA394A3945DCF852DC5
:10097000867809F459CFF6CFB70180E290E00E9463
:10098000F804A394A414C0F3312C5BCF342C3A1890
:10099000A41408F456CFF8CF852D867809F463CFD8
:1009A0008BE251FE80E257FC8DE2B70190E059CF17
:1009B000B70180E390E00E94F804BA9454CF8FEF1F
:1009C0009FEF81CFFC010590615070400110D8F776
:1009D000809590958E0F9F1F0895FC016150704087
:1009E00001900110D8F7809590958E0F9F1F089564
:1009F0000F931F93CF93DF93182F092FEB018B8158
:100A000081FD09C01FEF0FEF812F902FDF91CF9154
:100A10001F910F91089582FF14C02E813F818C8118
:100A20009D81281739073CF4E881F981CF010196AF
:100A30009983888310838E819F8101969F838E8303
:100A4000E3CFE885F985812F0995892BA1F3DACFCA
:100A5000FA01AA27283051F1203181F1E8946F93EF
:100A60006E7F6E5F7F4F8F4F9F4FAF4FB1E03ED095
:100A7000B4E03CD0670F781F891F9A1FA11D680F33
:100A8000791F8A1F911DA11D6A0F711D811D911D66
:100A9000A11D20D009F468943F912AE0269F1124DB
:100AA0003019305D3193DEF6CF010895462F47703F
:100AB000405D4193B3E00FD0C9F7F6CF462F4F709A
:100AC000405D4A3318F0495D31FD4052419302D0F8
:100AD000A9F7EACFB4E0A69597958795779567959E
:100AE000BA95C9F700976105710508959B01AC019E
:100AF0000A2E06945795479537952795BA95C9F7C5
:100B0000620F731F841F951FA01D0895F894FFCFD7
:100B100000000002000000000A01000000000100C7
:100B20000000583D256420202000593D25642020E8
:100B3000200058323D25642020200059323D256494
:040B40002020200051
:00000001FF
