:100000000C9468010C9487010C9487010C9487016F
:100010000C9487010C9487010C9487010C94870140
:100020000C9487010C9487010C9487010C94870130
:100030000C9487010C94A1060C9487010C94870101
:100040000C9487010C9487010C9487010C94870110
:100050000C9487010C9487010C9487010C94870100
:100060000C9487010C9487010C9487010C948701F0
:100070000C9487010C9487010C9487010C948701E0
:100080000C9487010C9487010C94870100002001D7
:100090000060C0A01180053A0103260104F20101AD
:1000A000E00F3F251C1E20122A90241100000000A2
:1000B00000E10F20202020050015A73D18252A2B40
:1000C0002B3AB1021114B40107C0020A02C10102A5
:1000D000C502505BC701402A040000007F2B0400CA
:1000E00000007F36010829002C00000000000000FD
:1000F000002108401080529400000052BEA57D4AA5
:1001000023E8E297C46D7445D6C03288C9C9A010EF
:100110008800000011108420824104210888012AEF
:10012000EA90000109F2100000000010880001E0D0
:1001300000000000002100108844221064ADA9498D
:1001400080461084238064844443C06484C1498011
:1001500023194F1080F4382149806439294980F0EF
:100160008844210064A4C9498064A527098000103F
:1001700080210000108021101111041040003C0F5C
:10018000000082082222006484440100326759A0E2
:10019000C064A5E94A40E4A5C94B8064A108498030
:1001A000E4A5294B80F421C843C0F421C84200646F
:1001B000A169594094A5E94A40E210842380108443
:1001C00029498094A98A4A4084210843C08C77BA7F
:1001D000D62096B56B4A4064A5294980E4A5C8425B
:1001E0000064A5296982E4A5CA4A4064A0C1498087
:1001F000F90842108094A52949808C62A510808D51
:100200006BF729408A94452A208C54421080F0884C
:100210008443C0721084210E8410821042708421A5
:10022000084E22A2000000000000001F2104000070
:10023000000304E949C08535296A800325084980FF
:1002400012AD2959400325E84980323C842100033E
:10025000A529385C8535294A4026084210801304B8
:10026000210A4C84A98A4A40E10842108006AB5A10
:10027000D6A00535294A4003252949800535296A34
:100280009002AD2959420535084200032482498075
:1002900047908420C004A52959400454A510800427
:1002A000635AB9400454422A2004A529385C0784C3
:1002B0004443C032110421062108421084C108229F
:1002C00010980011510000207E050508EC00000088
:1002D00011241FBECFEFD0E4DEBFCDBF11E0A0E000
:1002E000B1E0ECEEF4E100E00BBF02C007900D922C
:1002F000A433B107D9F721E0A4E3B1E001C01D9216
:10030000AC34B207E1F70E94F1060C94740A0C9425
:10031000000011B887E880937A0080E480937C0025
:1003200008958770806480937C00EAE7F0E0808124
:100330008064808380917A0084FFFCCFEAE7F0E05C
:100340008081806180832091780090917900892F4D
:1003500090E0982F8827820F911D089595B187FB13
:1003600020E29F7D93F995B986FB23B993F995B95E
:1003700085FB23B993F995B984FB23B993F995B912
:1003800083FB23B993F995B982FB23B993F995B906
:1003900081FB23B993F995B980FB23B993F995B9FA
:1003A00080FB23B9089595B19F7D95B995B19B7F49
:1003B00095B995B19D7F95B90E94AE0185B18260D6
:1003C00085B985B1846085B9089595B19F7D95B94A
:1003D00095B19D7F95B90E94AE0185B1826085B9C6
:1003E0000895DF92EF92FF920F931F93CF93DF93C5
:1003F00084B1826084B984B1806184B984B180623F
:1004000084B984B1886084B984B1846084B985B1C9
:10041000826085B985B1806185B989EF90E00197E7
:10042000F1F700C0000085B18F7E85B9E3EDF0E300
:100430003197F1F700C0000085B1806185B98FE286
:1004400095E70197F1F700C00000C4E9D0E002C0D1
:10045000DD20ECF09E012F5F3F4FFE018491882349
:1004600049F12296F901D4901D2D1F770E94D301E6
:100470000FEF010F112361F37E01FFEFEF1AFF0A67
:10048000FE0184910E94E501E701102FF1CF9E014A
:100490002F5F3F4FFE01C49107C0E9EFF0E03197B5
:1004A000F1F700C00000C82F8FEF8C0FC111F5CFFE
:1004B000E901D0CFDF91CF911F910F91FF90EF9085
:1004C000DF900895CF93C82F892F25B12F7D25B9AF
:1004D00025B12D7F25B90E94AE018C2F0E94AE015F
:1004E00085B1826085B9CF910895CF93DF93C82FEE
:1004F000D0E0FE01E457FF4FE491E093340186E33E
:100500000E94D301FE01E057FF4F849188600E9452
:10051000E501DF91CF9108950F931F93CF93DF9360
:10052000082FD62F142FC22F8AE20E94D3012091C8
:100530003401922F969596959695822F8295880FE5
:10054000807E800F911D0E94620220913401922FC3
:10055000969596959695822F8295880F807E810F2D
:10056000911D0E9462028BE20E94D30180913401AE
:1005700080728D0F9927991F0E9462028091340129
:1005800080728C0F9927991F0E9462028CE20E9450
:10059000D301DF91CF911F910F910895DF92EF92D8
:1005A000FF920F931F93CF93DF93E02FF12F8F01D3
:1005B00002951295107F1027007F1027AF2FBB27C1
:1005C0000A2B1B2BDE2E429FE0011124D595C795E7
:1005D000260F480F215041500E948C0285B18F7D1B
:1005E00085B985B18D7F85B97E0181E0E81AF10872
:1005F000CD2B59F0812F0E94AE01802F0E94AE01B9
:100600008D2D0E94AE01E701EFCF85B1826085B9E3
:10061000DF91CF911F910F91FF90EF90DF900895A0
:100620000F931F93082F192F20E840E860E080E027
:100630000E94CE021F910F910895CF92DF92EF9208
:10064000FF920F931F93CF93DF93C02FD12F429F21
:10065000F00111248F01169507950E0F1F1F260F0D
:10066000480F215041500E948C0285B18F7D85B981
:1006700085B18D7F85B97801F1E0EF1AF108012B82
:1006800059F06E018FEFC81AD80AFE0184910E94BA
:10069000AE018701E601EFCF85B1826085B9DF91B8
:1006A000CF911F910F91FF90EF90DF90CF90089521
:1006B0003F924F925F926F927F928F929F92AF92F2
:1006C000BF92CF92DF92EF92FF920F931F93CF933F
:1006D000DF93A82E462E642FC22E532E8E2C9F2CD5
:1006E000E4012496FE012491240F3401F3E06F0EFF
:1006F000711CF3014491440D21504150842D0E94FE
:100700008C02F4018491A81A52F1F4013196E4911B
:100710002E2F30E0F4018491281B31098A2D0A2CF8
:10072000000C990B281739070CF4A12CF401329610
:1007300024913A2D320350011124339685919491DE
:10074000A80EB91EF3013490FE01C4913C9E302CDA
:100750001124912C812CD0E0C0E0D12C17C0A12C09
:10076000D4CFEC2CF52C27C0C701929582958F70C1
:1007700089279F7089270E94E5014701982C8824CA
:10078000990C990C990C990CC695DF5FD315D8F488
:10079000C11106C0C5010196F501D4905C01C0E805
:1007A00030E08D2D0D2C000C990B8C239323892B7D
:1007B000C1F6E02EF12ED0FFD7CFC70188299929A5
:1007C0000E946202E1CFF3018491840DDF91CF9109
:1007D0001F910F91FF90EF90DF90CF90BF90AF905F
:1007E0009F908F907F906F905F904F903F90089573
:1007F000EF92FF920F931F930F2EF7ECEF2EF2E084
:10080000FF2EF02D0E9458031F910F91FF90EF9043
:1008100008957F928F929F92AF92BF92CF92DF9274
:10082000EF92FF920F931F93CF93DF93B42E722E0C
:10083000832E902EA12ECE2CDF2C0BC07601092DFD
:100840001A2D272D382D4B2D0E945803682F8C2FE1
:100850009D2FC82FD92F89918823A9F08D3011F0B1
:100860008A3061F7F60134968491B80E2B2D30E072
:10087000E49180E890E08E1B9109821793070CF4B5
:10088000B12C60E0E4CF862FDF91CF911F910F91C3
:10089000FF90EF90DF90CF90BF90AF909F908F90A0
:1008A0007F900895EF92FF920F931F930F2EF7EC16
:1008B000EF2EF2E0FF2EF02D0E9409041F910F9100
:1008C000FF90EF9008957F928F929F92AF92BF9288
:1008D000CF92DF92EF92FF920F931F93CF93DF930C
:1008E000E82FF92FB42E722E832E902EA12ECE2C0F
:1008F000DF2C0AC07601092D1A2D272D382D4B2DFE
:100900000E945803682FFE01EF01219684918823ED
:10091000A9F08D3011F08A3069F7F6013496849190
:10092000B80E2B2D30E0E49180E890E08E1B910909
:10093000821793070CF4B12C60E0E5CF862FDF918E
:10094000CF911F910F91FF90EF90DF90CF90BF90CC
:10095000AF909F908F907F900895EF92FF920F93AA
:100960001F930F2EF7ECEF2EF2E0FF2EF02D0E94DA
:1009700063041F910F91FF90EF900895CF93DF9341
:10098000C42FD52F262F482F0E948C02CE0182958E
:100990009295907F9827807F98270E946202DF912E
:1009A000CF9108958F929F92AF92BF92CF92DF9294
:1009B000EF92FF920F931F93CF93DF93B42EA22E4B
:1009C000C02FD12FCE2CDF2C260F480F21504150A5
:1009D0000E948C0285B18F7D85B985B18D7F85B9E7
:1009E00010E000E0812C8A2DAA94882309F43CC0F1
:1009F000912C1FC07E018FEFE81AF80AFE01C49106
:100A0000EC2FF0E0EE0FFF1FEC0DFD1D8591949192
:100A1000882E880C880C880C880C929582958F7093
:100A200089279F7089270E94AE01E7010F5F1F4F42
:100A300093949B14C0F600FFDDCF7E018FEFE81A80
:100A4000F80AFE01C491EC2FF0E0EE0FFF1FEC0D51
:100A5000FD1DC591D4918D2A882D0E94AE018C2F49
:100A60000E94AE01E701E2CF85B1826085B9DF91D6
:100A7000CF911F910F91FF90EF90DF90CF90BF909B
:100A8000AF909F908F90089588B98BB18F798BB973
:100A90008BB180688BB982E08A95F1F700C08BB189
:100AA0008F778BB98FE697E10197F1F700C00000CF
:100AB000089588B98BB18F7B8BB98BB1806A8BB964
:100AC00082E08A95F1F700C08BB18F778BB98FECFC
:100AD00097E00197F1F700C0000008958AB1806E99
:100AE0008AB98FEF87B98FE39CE90197F1F700C0CE
:100AF000000088E30E9444058CE00E94440586E0E3
:100B00000E94440581E00E94440580E80E9444055B
:100B100008950F931F93CF93DF93082F192FD0E0E1
:100B2000C0E0F801EC0FFD1F8081882321F00E94B6
:100B300059052196F6CFDF91CF911F910F9108951E
:100B4000CF93DF93D42FC52F813049F0823069F0E5
:100B50008D2F9C2F0E948905DF91CF9108956F7092
:100B6000862F80680E944405F3CF6F70862F806CBB
:100B70000E944405EDCF81E00E94440580E80E9478
:100B800044050895CF93C82F8A3051F09091C0004A
:100B900095FFFCCFC093C60090E080E0CF91089510
:100BA0008DE00E94C205F2CF80E00E9491019093F7
:100BB00045018093440181E00E949101282F392F43
:100BC00030934B0120934A0180914401909145015B
:100BD000853843E0940738F088E080933F0181E056
:100BE0008093430108958C32914038F484E08093DF
:100BF0003F0181E08093420108952C3281E0380763
:100C000038F482E080933F0181E0809341010895B0
:100C10002538334030F081E080933F0180934001DC
:100C2000089510923F0110924301109242011092D8
:100C3000400110924101089583E00E949101909338
:100C400049018093480184E00E949101282F392FA7
:100C500030934701209346018091480190914901CA
:100C6000853843E0940738F080E880933A0181E0CA
:100C700080933E0108958C32914038F480E4809353
:100C80003A0181E080933D0108952C3281E03807DC
:100C900038F480E280933A0181E080933C0108952A
:100CA0002538334038F080E180933A0181E0809329
:100CB0003B01089510923A0110923E0110923D01BD
:100CC00010923B0110923C010895609300017093D3
:100CD00001018093020190930301609335017093A9
:100CE0003601809337019093380108958BE080930B
:100CF00081008DE790E0909389008093880082E0E6
:100D000080936F0010928500109284008091000102
:100D100090910101A0910201B091030180933501EE
:100D200090933601A0933701B09338018FB7806854
:100D30008FBF089510928100089581E0809339015A
:100D400008951F920F920FB60F9211240BB60F92B7
:100D50002F933F934F935F936F937F938F939F93C3
:100D6000AF93BF93EF93FF9380913501909136013C
:100D7000A0913701B09138010197A109B109809381
:100D8000350190933601A0933701B0933801892B38
:100D90008A2B8B2B99F0FF91EF91BF91AF919F918F
:100DA0008F917F916F915F914F913F912F910F9014
:100DB0000BBE0F900FBE0F901F9018950E949D06BE
:100DC0008091000190910101A0910201B091030175
:100DD0008093350190933601A0933701B093380189
:100DE000DACFCDB7DEB764970FB6F894DEBF0FBE8B
:100DF000CDBF8FEF84B915B861E070E080E090E07E
:100E00000E9465060E9476060E94F10190E080E053
:100E10000E9410030E9489010E946E05E12C0F2E92
:100E2000F4E1FF2EF02D1DC04FE050E062E382E3BD
:100E30000E94BE044FE05FE062E38AE50E94BE04C8
:100E400040E05FE062E084E00E94BE0440E05FE0DA
:100E500064EF8EE70E94BE0480913901882309F473
:100E60006BC080E00E9491019F938F9382E191E09B
:100E70009F938F938E010F5F1F4F1F930F930E94BD
:100E80009F07A80160E081E00E94A00581E00E9428
:100E900091019F938F938AE191E09F938F931F938A
:100EA0000F930E949F07A80168E081E00E94A005BF
:100EB00083E00E9491019F938F9382E291E09F9340
:100EC0008F931F930F930E949F07A80160E082E019
:100ED0000E94A00584E00E9491019F938F938BE272
:100EE00091E09F938F931F930F930E949F07A801F8
:100EF00068E082E00E94A0050E94D4050E941C06C2
:100F00000FB6F894DEBF0FBECDBF02E310E010169F
:100F100011060CF089CF4FE05FE060E08F2D0E945A
:100F2000BE04F3944FE050E06E2D84E10E94BE04B5
:100F3000E39401501109EBCF109239018DCF0F933B
:100F40001F93CF93DF93CDB7DEB72E970FB6F894EC
:100F5000DEBF0FBECDBF0D891E8986E08C831A834C
:100F600009838FEF9FE79E838D83AE01475E5F4FBE
:100F70006F89788DCE0101960E94CF072F81388529
:100F8000020F131FF80110822E960FB6F894DEBFE1
:100F90000FBECDBFDF91CF911F910F9108952F927A
:100FA0003F924F925F926F927F928F929F92AF92F9
:100FB000BF92CF92DF92EF92FF920F931F93CF9346
:100FC000DF93CDB7DEB72F970FB6F894DEBF0FBE15
:100FD000CDBF7C013B018A01DC0117961C921E9259
:100FE000169713968C9181FFD8C19AE0292EFE01A5
:100FF00031964F01D70113969C91F30193FD859192
:1010000093FF81913F01882309F448C1853239F467
:1010100093FD859193FF81913F01853229F4B701BA
:1010200090E00E94E609E6CFB12C412C512CBFE1A3
:10103000B51538F08B3209F188F4803201F1833232
:1010400021F157FC3AC020ED280F2A3040F556FE1A
:101050001FC0B29C200D1124B22E06C08D3291F01B
:10106000803379F7689450F8F30193FD859193FFED
:1010700081913F018111DBCF20C0689451F86894C1
:1010800052F8F2CF689453F8EFCF689454F8ECCF4D
:10109000429C200D1124422E689455F8E5CF8E32E3
:1010A00029F456FCFBC0689456F8DECF8C3619F450
:1010B000689457F8D9CF8836B9F2982F9F7D955408
:1010C0009330C0F08336A1F18337C1F1833509F045
:1010D0005BC0D801CD90DD908D016B2D70E056FC8A
:1010E00002C06FEF7FEFC6010E94D0095C016894D7
:1010F00057F80AC00C5F1F4FEFE3E983AA24A394BB
:10110000B12C6401E89457F853FC04C04A141B0442
:1011100009F018F5342CA114B10431F5332009F489
:1011200069CFB70180E290E00E94E6093A94F6CFD9
:10113000D8018C9189830E5F1F4FE0CFF801C190D9
:10114000D1908F016B2D70E056FC02C06FEF7FEFE6
:10115000C6010E94DB095C01D5CFB70180E290E0B7
:101160000E94E6094A94D2CFF60157FC859157FEBA
:1011700081916F01B70190E00E94E60931103A9425
:10118000B1E0AB1AB108C7CF843619F0893609F03F
:1011900074C0F80157FE6AC061917191819191917B
:1011A0008F01E52DEF76DE2E97FF09C09095809593
:1011B000709561957F4F8F4F9F4F6894D7F82AE0C5
:1011C00030E0A4010E94160AC82EC818AC2C5D2C71
:1011D000D6FE0CC0E89450F8CB1440F4D4FE05C001
:1011E000D2FC03C05D2D5E7E552EAB2C54FEADC0EF
:1011F000FE01EC0DF11D8081803309F09FC0652D4B
:10120000697E562E752D7870372E53FCADC050FE7A
:10121000A7C0BC2CA41418F44C0CB42CBA1854FE5F
:10122000A9C0B70180E390E00E94E60952FE09C020
:1012300088E790E051FE02C088E590E0B7010E9487
:10124000E609CB1408F4A2C0CA94D12C8FEFC81AB7
:10125000D80AC80CD91CD6018E916D01B70190E057
:101260000E94E6098C149D04B1F758CF61917191E9
:10127000072E000C880B990B93CFD52CE894D4F84B
:101280002AE030E08537E1F1F52DF97FDF2E803758
:1012900051F100F5883551F18F3681F1F7018681E2
:1012A00097812F960FB6F894DEBF0FBECDBFDF91AA
:1012B000CF911F910F91FF90EF90DF90CF90BF9053
:1012C000AF909F908F907F906F905F904F903F90E6
:1012D0002F900895883711F7D4FE02C06894D2F891
:1012E00020E130E00DC06894D4F8F6CF54FE03C07E
:1012F0002F2F2660D22E20E132E002C028E030E01D
:10130000F801D7FE15C041915191619171914C87BF
:101310005D876E877F878F01A4016C857D858E85B3
:101320009F850E94160AC82EC818E894D7F84ECF99
:1013300081919191AC0170E060E0E9CF52FC02C074
:10134000A39460CFA394A3945DCF852D867809F4F0
:1013500059CFF6CFB70180E290E00E94E609A3944E
:10136000A414C0F3312C5BCF342C3A18A41408F425
:1013700056CFF8CF852D867809F463CF8BE251FEE6
:1013800080E257FC8DE2B70190E059CFB70180E3CE
:1013900090E00E94E609BA9454CF8FEF9FEF81CF7F
:1013A000FC010590615070400110D8F78095909530
:1013B0008E0F9F1F0895FC01615070400190011035
:1013C000D8F7809590958E0F9F1F08950F931F93C8
:1013D000CF93DF93182F092FEB018B8181FD09C07B
:1013E0001FEF0FEF812F902FDF91CF911F910F9162
:1013F000089582FF14C02E813F818C819D81281722
:1014000039073CF4E881F981CF01019699838883FB
:1014100010838E819F8101969F838E83E3CFE88521
:10142000F985812F0995892BA1F3DACFFA01AA2733
:10143000283051F1203181F1E8946F936E7F6E5F17
:101440007F4F8F4F9F4FAF4FB1E03ED0B4E03CD0C5
:10145000670F781F891F9A1FA11D680F791F8A1FA8
:10146000911DA11D6A0F711D811D911DA11D20D00F
:1014700009F468943F912AE0269F11243019305DC9
:101480003193DEF6CF010895462F4770405D4193BA
:10149000B3E00FD0C9F7F6CF462F4F70405D4A3307
:1014A00018F0495D31FD4052419302D0A9F7EACFCF
:1014B000B4E0A6959795879577956795BA95C9F7FE
:1014C00000976105710508959B01AC010A2E0694F1
:1014D0005795479537952795BA95C9F7620F731FAA
:0C14E000841F951FA01D0895F894FFCFF5
:1014EC00010000000000000200000000C205000026
:1014FC000000583D256420202000593D2564202003
:10150C00200058323D25642020200059323D2564AE
:04151C00202020006B
:00000001FF
